{
  "contractName": "Token",
  "abi": [
    {
      "inputs": [],
      "stateMutability": "nonpayable",
      "type": "constructor"
    },
    {
      "anonymous": false,
      "inputs": [
        {
          "indexed": true,
          "internalType": "address",
          "name": "owner",
          "type": "address"
        },
        {
          "indexed": true,
          "internalType": "address",
          "name": "spender",
          "type": "address"
        },
        {
          "indexed": false,
          "internalType": "uint256",
          "name": "value",
          "type": "uint256"
        }
      ],
      "name": "Approve",
      "type": "event"
    },
    {
      "anonymous": false,
      "inputs": [
        {
          "indexed": true,
          "internalType": "address",
          "name": "from",
          "type": "address"
        },
        {
          "indexed": true,
          "internalType": "address",
          "name": "to",
          "type": "address"
        },
        {
          "indexed": false,
          "internalType": "uint256",
          "name": "value",
          "type": "uint256"
        }
      ],
      "name": "Transfer",
      "type": "event"
    },
    {
      "inputs": [
        {
          "internalType": "address",
          "name": "",
          "type": "address"
        },
        {
          "internalType": "address",
          "name": "",
          "type": "address"
        }
      ],
      "name": "allowance",
      "outputs": [
        {
          "internalType": "uint256",
          "name": "",
          "type": "uint256"
        }
      ],
      "stateMutability": "view",
      "type": "function"
    },
    {
      "inputs": [
        {
          "internalType": "address",
          "name": "",
          "type": "address"
        }
      ],
      "name": "balanceOf",
      "outputs": [
        {
          "internalType": "uint256",
          "name": "",
          "type": "uint256"
        }
      ],
      "stateMutability": "view",
      "type": "function"
    },
    {
      "inputs": [],
      "name": "decimals",
      "outputs": [
        {
          "internalType": "uint8",
          "name": "",
          "type": "uint8"
        }
      ],
      "stateMutability": "view",
      "type": "function"
    },
    {
      "inputs": [],
      "name": "name",
      "outputs": [
        {
          "internalType": "string",
          "name": "",
          "type": "string"
        }
      ],
      "stateMutability": "view",
      "type": "function"
    },
    {
      "inputs": [],
      "name": "owner",
      "outputs": [
        {
          "internalType": "address payable",
          "name": "",
          "type": "address"
        }
      ],
      "stateMutability": "view",
      "type": "function"
    },
    {
      "inputs": [],
      "name": "symbol",
      "outputs": [
        {
          "internalType": "string",
          "name": "",
          "type": "string"
        }
      ],
      "stateMutability": "view",
      "type": "function"
    },
    {
      "inputs": [],
      "name": "totalSupply",
      "outputs": [
        {
          "internalType": "uint256",
          "name": "",
          "type": "uint256"
        }
      ],
      "stateMutability": "view",
      "type": "function"
    },
    {
      "inputs": [],
      "name": "getOwner",
      "outputs": [
        {
          "internalType": "address",
          "name": "",
          "type": "address"
        }
      ],
      "stateMutability": "view",
      "type": "function"
    },
    {
      "inputs": [
        {
          "internalType": "address",
          "name": "_to",
          "type": "address"
        },
        {
          "internalType": "uint256",
          "name": "_value",
          "type": "uint256"
        }
      ],
      "name": "transfer",
      "outputs": [
        {
          "internalType": "bool",
          "name": "success",
          "type": "bool"
        }
      ],
      "stateMutability": "nonpayable",
      "type": "function"
    },
    {
      "inputs": [
        {
          "internalType": "address",
          "name": "_from",
          "type": "address"
        },
        {
          "internalType": "address",
          "name": "_to",
          "type": "address"
        },
        {
          "internalType": "uint256",
          "name": "_value",
          "type": "uint256"
        }
      ],
      "name": "transferFrom",
      "outputs": [
        {
          "internalType": "bool",
          "name": "success",
          "type": "bool"
        }
      ],
      "stateMutability": "nonpayable",
      "type": "function"
    },
    {
      "inputs": [
        {
          "internalType": "address",
          "name": "_spender",
          "type": "address"
        },
        {
          "internalType": "uint256",
          "name": "_value",
          "type": "uint256"
        }
      ],
      "name": "approve",
      "outputs": [
        {
          "internalType": "bool",
          "name": "success",
          "type": "bool"
        }
      ],
      "stateMutability": "nonpayable",
      "type": "function"
    },
    {
      "inputs": [
        {
          "internalType": "uint256",
          "name": "_amount",
          "type": "uint256"
        }
      ],
      "name": "mint",
      "outputs": [
        {
          "internalType": "bool",
          "name": "success",
          "type": "bool"
        }
      ],
      "stateMutability": "nonpayable",
      "type": "function"
    },
    {
      "inputs": [
        {
          "internalType": "uint256",
          "name": "_amount",
          "type": "uint256"
        }
      ],
      "name": "burn",
      "outputs": [
        {
          "internalType": "bool",
          "name": "success",
          "type": "bool"
        }
      ],
      "stateMutability": "nonpayable",
      "type": "function"
    }
  ],
  "bytecode": "0x60806040523480156200001157600080fd5b506040518060400160405280600a81526020017f5465737420546f6b656e000000000000000000000000000000000000000000008152506000908162000058919062000461565b506040518060400160405280600781526020017f546f6b656e203200000000000000000000000000000000000000000000000000815250600190816200009f919062000461565b506012600260006101000a81548160ff021916908360ff1602179055506000683635c9adc5dea00000905033600460006101000a81548173ffffffffffffffffffffffffffffffffffffffff021916908373ffffffffffffffffffffffffffffffffffffffff1602179055508060056000600460009054906101000a900473ffffffffffffffffffffffffffffffffffffffff1673ffffffffffffffffffffffffffffffffffffffff1673ffffffffffffffffffffffffffffffffffffffff16815260200190815260200160002081905550806003819055503373ffffffffffffffffffffffffffffffffffffffff16600073ffffffffffffffffffffffffffffffffffffffff167fddf252ad1be2c89b69c2b068fc378daa952ba7f163c4a11628f55a4df523b3ef83604051620001d8919062000559565b60405180910390a35062000576565b600081519050919050565b7f4e487b7100000000000000000000000000000000000000000000000000000000600052604160045260246000fd5b7f4e487b7100000000000000000000000000000000000000000000000000000000600052602260045260246000fd5b600060028204905060018216806200026957607f821691505b6020821081036200027f576200027e62000221565b5b50919050565b60008190508160005260206000209050919050565b60006020601f8301049050919050565b600082821b905092915050565b600060088302620002e97fffffffffffffffffffffffffffffffffffffffffffffffffffffffffffffffff82620002aa565b620002f58683620002aa565b95508019841693508086168417925050509392505050565b6000819050919050565b6000819050919050565b6000620003426200033c62000336846200030d565b62000317565b6200030d565b9050919050565b6000819050919050565b6200035e8362000321565b620003766200036d8262000349565b848454620002b7565b825550505050565b600090565b6200038d6200037e565b6200039a81848462000353565b505050565b5b81811015620003c257620003b660008262000383565b600181019050620003a0565b5050565b601f8211156200041157620003db8162000285565b620003e6846200029a565b81016020851015620003f6578190505b6200040e62000405856200029a565b8301826200039f565b50505b505050565b600082821c905092915050565b6000620004366000198460080262000416565b1980831691505092915050565b600062000451838362000423565b9150826002028217905092915050565b6200046c82620001e7565b67ffffffffffffffff811115620004885762000487620001f2565b5b62000494825462000250565b620004a1828285620003c6565b600060209050601f831160018114620004d95760008415620004c4578287015190505b620004d0858262000443565b86555062000540565b601f198416620004e98662000285565b60005b828110156200051357848901518255600182019150602085019450602081019050620004ec565b868310156200053357848901516200052f601f89168262000423565b8355505b6001600288020188555050505b505050505050565b62000553816200030d565b82525050565b600060208201905062000570600083018462000548565b92915050565b6117d280620005866000396000f3fe608060405234801561001057600080fd5b50600436106100cf5760003560e01c806370a082311161008c57806395d89b411161006657806395d89b411461022a578063a0712d6814610248578063a9059cbb14610278578063dd62ed3e146102a8576100cf565b806370a08231146101be578063893d20e8146101ee5780638da5cb5b1461020c576100cf565b806306fdde03146100d4578063095ea7b3146100f257806318160ddd1461012257806323b872dd14610140578063313ce5671461017057806342966c681461018e575b600080fd5b6100dc6102d8565b6040516100e99190611018565b60405180910390f35b61010c600480360381019061010791906110d3565b610366565b604051610119919061112e565b60405180910390f35b61012a61049a565b6040516101379190611158565b60405180910390f35b61015a60048036038101906101559190611173565b6104a0565b604051610167919061112e565b60405180910390f35b61017861087f565b60405161018591906111e2565b60405180910390f35b6101a860048036038101906101a391906111fd565b610892565b6040516101b5919061112e565b60405180910390f35b6101d860048036038101906101d3919061122a565b610a67565b6040516101e59190611158565b60405180910390f35b6101f6610a7f565b6040516102039190611266565b60405180910390f35b610214610aa9565b60405161022191906112a2565b60405180910390f35b610232610acf565b60405161023f9190611018565b60405180910390f35b610262600480360381019061025d91906111fd565b610b5d565b60405161026f919061112e565b60405180910390f35b610292600480360381019061028d91906110d3565b610ccd565b60405161029f919061112e565b60405180910390f35b6102c260048036038101906102bd91906112bd565b610f5a565b6040516102cf9190611158565b60405180910390f35b600080546102e59061132c565b80601f01602080910402602001604051908101604052809291908181526020018280546103119061132c565b801561035e5780601f106103335761010080835404028352916020019161035e565b820191906000526020600020905b81548152906001019060200180831161034157829003601f168201915b505050505081565b60008082116103aa576040517f08c379a00000000000000000000000000000000000000000000000000000000081526004016103a1906113a9565b60405180910390fd5b81600660003373ffffffffffffffffffffffffffffffffffffffff1673ffffffffffffffffffffffffffffffffffffffff16815260200190815260200160002060008573ffffffffffffffffffffffffffffffffffffffff1673ffffffffffffffffffffffffffffffffffffffff168152602001908152602001600020819055508273ffffffffffffffffffffffffffffffffffffffff163373ffffffffffffffffffffffffffffffffffffffff167f6e11fb1b7f119e3f2fa29896ef5fdf8b8a2d0d4df6fe90ba8668e7d8b2ffa25e846040516104889190611158565b60405180910390a36001905092915050565b60035481565b600080600560003373ffffffffffffffffffffffffffffffffffffffff1673ffffffffffffffffffffffffffffffffffffffff1681526020019081526020016000205490506000600660008773ffffffffffffffffffffffffffffffffffffffff1673ffffffffffffffffffffffffffffffffffffffff16815260200190815260200160002060003373ffffffffffffffffffffffffffffffffffffffff1673ffffffffffffffffffffffffffffffffffffffff1681526020019081526020016000205490506000600560008773ffffffffffffffffffffffffffffffffffffffff1673ffffffffffffffffffffffffffffffffffffffff168152602001908152602001600020549050600073ffffffffffffffffffffffffffffffffffffffff168673ffffffffffffffffffffffffffffffffffffffff1603610619576040517f08c379a000000000000000000000000000000000000000000000000000000000815260040161061090611415565b60405180910390fd5b600085101561065d576040517f08c379a0000000000000000000000000000000000000000000000000000000008152600401610654906114a7565b60405180910390fd5b84831161069f576040517f08c379a000000000000000000000000000000000000000000000000000000000815260040161069690611513565b60405180910390fd5b848210156106e2576040517f08c379a00000000000000000000000000000000000000000000000000000000081526004016106d99061157f565b60405180910390fd5b84836106ee91906115ce565b600560008973ffffffffffffffffffffffffffffffffffffffff1673ffffffffffffffffffffffffffffffffffffffff16815260200190815260200160002081905550848161073d9190611602565b600560008873ffffffffffffffffffffffffffffffffffffffff1673ffffffffffffffffffffffffffffffffffffffff16815260200190815260200160002081905550848261078c91906115ce565b600660008973ffffffffffffffffffffffffffffffffffffffff1673ffffffffffffffffffffffffffffffffffffffff16815260200190815260200160002060003373ffffffffffffffffffffffffffffffffffffffff1673ffffffffffffffffffffffffffffffffffffffff168152602001908152602001600020819055508573ffffffffffffffffffffffffffffffffffffffff168773ffffffffffffffffffffffffffffffffffffffff167fddf252ad1be2c89b69c2b068fc378daa952ba7f163c4a11628f55a4df523b3ef876040516108699190611158565b60405180910390a3600193505050509392505050565b600260009054906101000a900460ff1681565b60008073ffffffffffffffffffffffffffffffffffffffff163373ffffffffffffffffffffffffffffffffffffffff1603610902576040517f08c379a00000000000000000000000000000000000000000000000000000000081526004016108f9906116a4565b60405180910390fd5b6000600560003373ffffffffffffffffffffffffffffffffffffffff1673ffffffffffffffffffffffffffffffffffffffff168152602001908152602001600020549050828111610988576040517f08c379a000000000000000000000000000000000000000000000000000000000815260040161097f90611710565b60405180910390fd5b82600560003373ffffffffffffffffffffffffffffffffffffffff1673ffffffffffffffffffffffffffffffffffffffff16815260200190815260200160002060008282546109d791906115ce565b9250508190555082600360008282546109f091906115ce565b92505081905550600073ffffffffffffffffffffffffffffffffffffffff163373ffffffffffffffffffffffffffffffffffffffff167fddf252ad1be2c89b69c2b068fc378daa952ba7f163c4a11628f55a4df523b3ef85604051610a559190611158565b60405180910390a36001915050919050565b60056020528060005260406000206000915090505481565b6000600460009054906101000a900473ffffffffffffffffffffffffffffffffffffffff16905090565b600460009054906101000a900473ffffffffffffffffffffffffffffffffffffffff1681565b60018054610adc9061132c565b80601f0160208091040260200160405190810160405280929190818152602001828054610b089061132c565b8015610b555780601f10610b2a57610100808354040283529160200191610b55565b820191906000526020600020905b815481529060010190602001808311610b3857829003601f168201915b505050505081565b6000600460009054906101000a900473ffffffffffffffffffffffffffffffffffffffff1673ffffffffffffffffffffffffffffffffffffffff163373ffffffffffffffffffffffffffffffffffffffff1614610bef576040517f08c379a0000000000000000000000000000000000000000000000000000000008152600401610be69061177c565b60405180910390fd5b8160036000828254610c019190611602565b9250508190555081600560003373ffffffffffffffffffffffffffffffffffffffff1673ffffffffffffffffffffffffffffffffffffffff1681526020019081526020016000206000828254610c579190611602565b925050819055503373ffffffffffffffffffffffffffffffffffffffff16600073ffffffffffffffffffffffffffffffffffffffff167fddf252ad1be2c89b69c2b068fc378daa952ba7f163c4a11628f55a4df523b3ef84604051610cbc9190611158565b60405180910390a360019050919050565b600080600560003373ffffffffffffffffffffffffffffffffffffffff1673ffffffffffffffffffffffffffffffffffffffff1681526020019081526020016000205490506000600560008673ffffffffffffffffffffffffffffffffffffffff1673ffffffffffffffffffffffffffffffffffffffff168152602001908152602001600020549050600073ffffffffffffffffffffffffffffffffffffffff168573ffffffffffffffffffffffffffffffffffffffff1603610dc5576040517f08c379a0000000000000000000000000000000000000000000000000000000008152600401610dbc90611415565b60405180910390fd5b6000841015610e09576040517f08c379a0000000000000000000000000000000000000000000000000000000008152600401610e00906114a7565b60405180910390fd5b838211610e4b576040517f08c379a0000000000000000000000000000000000000000000000000000000008152600401610e4290611513565b60405180910390fd5b8382610e5791906115ce565b600560003373ffffffffffffffffffffffffffffffffffffffff1673ffffffffffffffffffffffffffffffffffffffff168152602001908152602001600020819055508381610ea69190611602565b600560008773ffffffffffffffffffffffffffffffffffffffff1673ffffffffffffffffffffffffffffffffffffffff168152602001908152602001600020819055508473ffffffffffffffffffffffffffffffffffffffff163373ffffffffffffffffffffffffffffffffffffffff167fddf252ad1be2c89b69c2b068fc378daa952ba7f163c4a11628f55a4df523b3ef86604051610f469190611158565b60405180910390a360019250505092915050565b6006602052816000526040600020602052806000526040600020600091509150505481565b600081519050919050565b600082825260208201905092915050565b60005b83811015610fb9578082015181840152602081019050610f9e565b83811115610fc8576000848401525b50505050565b6000601f19601f8301169050919050565b6000610fea82610f7f565b610ff48185610f8a565b9350611004818560208601610f9b565b61100d81610fce565b840191505092915050565b600060208201905081810360008301526110328184610fdf565b905092915050565b600080fd5b600073ffffffffffffffffffffffffffffffffffffffff82169050919050565b600061106a8261103f565b9050919050565b61107a8161105f565b811461108557600080fd5b50565b60008135905061109781611071565b92915050565b6000819050919050565b6110b08161109d565b81146110bb57600080fd5b50565b6000813590506110cd816110a7565b92915050565b600080604083850312156110ea576110e961103a565b5b60006110f885828601611088565b9250506020611109858286016110be565b9150509250929050565b60008115159050919050565b61112881611113565b82525050565b6000602082019050611143600083018461111f565b92915050565b6111528161109d565b82525050565b600060208201905061116d6000830184611149565b92915050565b60008060006060848603121561118c5761118b61103a565b5b600061119a86828701611088565b93505060206111ab86828701611088565b92505060406111bc868287016110be565b9150509250925092565b600060ff82169050919050565b6111dc816111c6565b82525050565b60006020820190506111f760008301846111d3565b92915050565b6000602082840312156112135761121261103a565b5b6000611221848285016110be565b91505092915050565b6000602082840312156112405761123f61103a565b5b600061124e84828501611088565b91505092915050565b6112608161105f565b82525050565b600060208201905061127b6000830184611257565b92915050565b600061128c8261103f565b9050919050565b61129c81611281565b82525050565b60006020820190506112b76000830184611293565b92915050565b600080604083850312156112d4576112d361103a565b5b60006112e285828601611088565b92505060206112f385828601611088565b9150509250929050565b7f4e487b7100000000000000000000000000000000000000000000000000000000600052602260045260246000fd5b6000600282049050600182168061134457607f821691505b602082108103611357576113566112fd565b5b50919050565b7f56616c7565206d7573742062652067726561746572207468616e203000000000600082015250565b6000611393601c83610f8a565b915061139e8261135d565b602082019050919050565b600060208201905081810360008301526113c281611386565b9050919050565b7f5265636569766572206164647265737320696e76616c69640000000000000000600082015250565b60006113ff601883610f8a565b915061140a826113c9565b602082019050919050565b6000602082019050818103600083015261142e816113f2565b9050919050565b7f56616c7565206d7573742062652067726561746572206f7220657175616c207460008201527f6f20300000000000000000000000000000000000000000000000000000000000602082015250565b6000611491602383610f8a565b915061149c82611435565b604082019050919050565b600060208201905081810360008301526114c081611484565b9050919050565b7f4e6f7420656e6f7567682062616c616e63650000000000000000000000000000600082015250565b60006114fd601283610f8a565b9150611508826114c7565b602082019050919050565b6000602082019050818103600083015261152c816114f0565b9050919050565b7f4e6f7420656e6f75676820616c6c6f77616e6365000000000000000000000000600082015250565b6000611569601483610f8a565b915061157482611533565b602082019050919050565b600060208201905081810360008301526115988161155c565b9050919050565b7f4e487b7100000000000000000000000000000000000000000000000000000000600052601160045260246000fd5b60006115d98261109d565b91506115e48361109d565b9250828210156115f7576115f661159f565b5b828203905092915050565b600061160d8261109d565b91506116188361109d565b9250827fffffffffffffffffffffffffffffffffffffffffffffffffffffffffffffffff0382111561164d5761164c61159f565b5b828201905092915050565b7f496e76616c6964206275726e20726563697069656e7400000000000000000000600082015250565b600061168e601683610f8a565b915061169982611658565b602082019050919050565b600060208201905081810360008301526116bd81611681565b9050919050565b7f4275726e20616d6f756e7420657863656564732062616c616e63650000000000600082015250565b60006116fa601b83610f8a565b9150611705826116c4565b602082019050919050565b60006020820190508181036000830152611729816116ed565b9050919050565b7f4f7065726174696f6e20756e617574686f726973656400000000000000000000600082015250565b6000611766601683610f8a565b915061177182611730565b602082019050919050565b6000602082019050818103600083015261179581611759565b905091905056fea26469706673582212204cc4288761fdcd4fe4e64bcc39baa63290c59e41db85599d791f93024603c0ad64736f6c634300080f0033",
  "immutableReferences": {},
  "source": "// SPDX-License-Identifier: GPL-3.0\r\npragma solidity >=0.8.0;\r\n\r\ncontract Token {\r\n    constructor() {\r\n        name = \"Test Token\"; // Sets the name of the token, i.e Ether\r\n        symbol = \"Token 2\"; // Sets the symbol of the token, i.e ETH\r\n        decimals = 18; // Sets the number of decimal places\r\n        uint256 _initialSupply = 1000000000000000000000; // Holds an initial supply of coins\r\n\r\n        /* Sets the owner of the token to whoever deployed it */\r\n        owner = payable(msg.sender);\r\n\r\n        balanceOf[owner] = _initialSupply; // Transfers all tokens to owner\r\n        totalSupply = _initialSupply; // Sets the total supply of tokens\r\n\r\n        /* Whenever tokens are created, burnt, or transfered,\r\n            the Transfer event is fired */\r\n        emit Transfer(address(0), msg.sender, _initialSupply);\r\n    }\r\n\r\n    // All subsequent code will be inside this block\r\n    string public name; // Holds the name of the token\r\n    string public symbol; // Holds the symbol of the token\r\n    uint8 public decimals; // Holds the decimal places of the token\r\n    uint256 public totalSupply; // Holds the total suppy of the token\r\n    address payable public owner; // Holds the owner of the token\r\n\r\n    /* This creates a mapping with all balances */\r\n    mapping(address => uint256) public balanceOf;\r\n    /* This creates a mapping of accounts with allowances */\r\n    mapping(address => mapping(address => uint256)) public allowance;\r\n\r\n    /* This event is always fired on a successfull call of the\r\n       transfer, transferFrom, mint, and burn methods */\r\n    event Transfer(address indexed from, address indexed to, uint256 value);\r\n    /* This event is always fired on a successfull call of the approve method */\r\n    event Approve(\r\n        address indexed owner,\r\n        address indexed spender,\r\n        uint256 value\r\n    );\r\n    function getOwner() public view returns (address) {\r\n        return owner;\r\n    }function transfer(address _to, uint256 _value) public returns (bool success) {\r\n        uint256 senderBalance = balanceOf[msg.sender];\r\n        uint256 receiverBalance = balanceOf[_to];\r\n\r\n        require(_to != address(0), \"Receiver address invalid\");\r\n        require(_value >= 0, \"Value must be greater or equal to 0\");\r\n        require(senderBalance > _value, \"Not enough balance\");\r\n\r\n        balanceOf[msg.sender] = senderBalance - _value;\r\n        balanceOf[_to] = receiverBalance + _value;\r\n\r\n        emit Transfer(msg.sender, _to, _value);\r\n        return true;\r\n    }\r\n    function transferFrom(address _from, address _to, uint256 _value)\r\n      public returns (bool success) {\r\n        uint256 senderBalance = balanceOf[msg.sender];\r\n        uint256 fromAllowance = allowance[_from][msg.sender];\r\n        uint256 receiverBalance = balanceOf[_to];\r\n\r\n        require(_to != address(0), \"Receiver address invalid\");\r\n        require(_value >= 0, \"Value must be greater or equal to 0\");\r\n        require(senderBalance > _value, \"Not enough balance\");\r\n        require(fromAllowance >= _value, \"Not enough allowance\");\r\n\r\n        balanceOf[_from] = senderBalance - _value;\r\n        balanceOf[_to] = receiverBalance + _value;\r\n        allowance[_from][msg.sender] = fromAllowance - _value;\r\n\r\n        emit Transfer(_from, _to, _value);\r\n        return true;\r\n    }\r\n    function approve(address _spender, uint256 _value) public returns (bool success) {\r\n        require(_value > 0, \"Value must be greater than 0\");\r\n\r\n        allowance[msg.sender][_spender] = _value;\r\n\r\n        emit Approve(msg.sender, _spender, _value);\r\n        return true;\r\n    }\r\n     function mint(uint256 _amount) public returns (bool success) {\r\n        require(msg.sender == owner, \"Operation unauthorised\");\r\n\r\n        totalSupply += _amount;\r\n        balanceOf[msg.sender] += _amount;\r\n\r\n        emit Transfer(address(0), msg.sender, _amount);\r\n        return true;\r\n    }\r\n    function burn(uint256 _amount) public returns (bool success) {\r\n      require(msg.sender != address(0), \"Invalid burn recipient\");\r\n\r\n      uint256 accountBalance = balanceOf[msg.sender];\r\n      require(accountBalance > _amount, \"Burn amount exceeds balance\");\r\n\r\n      balanceOf[msg.sender] -= _amount;\r\n      totalSupply -= _amount;\r\n\r\n      emit Transfer(msg.sender, address(0), _amount);\r\n      return true;\r\n    }\r\n}\r\n",
  "sourcePath": "F:\\smartcontracts\\bep20_token\\contracts\\Token.sol",
  "compiler": {
    "name": "solc",
    "version": "0.8.15+commit.e14f2714.Emscripten.clang"
  },
  "schemaVersion": "3.4.8",
  "updatedAt": "2022-07-20T17:43:52.256Z",
  "devdoc": {
    "kind": "dev",
    "methods": {},
    "version": 1
  },
  "userdoc": {
    "kind": "user",
    "methods": {},
    "version": 1
  }
}